:020000040800F2
:1000000000500020FD0D00084D0E00084D0E0008A8
:100010004D0E00084D0E00084D0E000800000000B7
:100020000000000000000000000000004D0E00086D
:100030004D0E0008000000004D0E00085D0D000888
:100040004D0E00084D0E00084D0E00084D0E000824
:100050004D0E00084D0E00087D07000891070008AE
:10006000A5070008B9070008CD0700084D0E0008D5
:100070004D0E00084D0E00084D0E00084D0E0008F4
:100080004D0E00084D0E00084D0E00084D0E0008E4
:100090004D0E00084D0E00084D0E00084D0E0008D4
:1000A0004D0E00084D0E00084D0E00084D0E0008C4
:1000B0004D0E00084D0E00084D0E00084D0E0008B4
:1000C0004D0E00084D0E00084D0E00084D0E0008A4
:1000D0004D0E00084D0E00084D0E00084D0E000894
:1000E0004D0E00084D0E0008000000004D0E0008E7
:1000F0004D0E00084D0E00084D0E00084D0E000874
:100100004D0E00084D0E00084D0E00084D0E000863
:100110004D0E00084D0E00084D0E00084D0E000853
:100120004D0E00084D0E00084D0E00084D0E000843
:1001300010B5054C237833B9044B13B10448AFF321
:1001400000800123237010BD00000020000000008B
:10015000980E000808B5034B1BB103490348AFF3E1
:10016000008008BD0000000004000020980E000878
:1001700070B54FF0FF0C4CF4E06C1CEA11541DBF3D
:100180001CEA135594EA0C0F95EA0C0F00F0DEF808
:100190002C4481EA030621EA4C5123EA4C5350EAED
:1001A000013518BF52EA033541F4801143F480133E
:1001B00038D0A0FB02CE4FF00005E1FB02E506F0CF
:1001C0000042E0FB03E54FF00006E1FB03569CF024
:1001D000000F18BF4EF0010EA4F1FF04B6F5007F2A
:1001E00064F5407404D25FEA4E0E6D4146EB06069C
:1001F00042EAC62141EA55514FEAC52040EA5E5025
:100200004FEACE2EB4F1FD0C88BFBCF5E06F1ED8CE
:10021000BEF1004F08BF5FEA500E50F1000041EB05
:10022000045170BD06F0004646EA010140EA0200B2
:1002300081EA0301B4EB5C04C2BFD4EB0C0541EAD4
:10024000045170BD41F480114FF0000E013C00F3E9
:10025000AB8014F1360FDEBF002001F0004170BD0D
:10026000C4F10004203C35DA0C341BDC04F1140426
:10027000C4F1200500FA05F320FA04F001FA05F2B2
:1002800040EA020001F0004221F0004110EBD3707F
:1002900021FA04F642EB06015EEA430E08BF20EAAB
:1002A000D37070BDC4F10C04C4F1200500FA04F34E
:1002B00020FA05F001FA04F240EA020001F00041E0
:1002C00010EBD37041F100015EEA430E08BF20EA53
:1002D000D37070BDC4F1200500FA05F24EEA020E9B
:1002E00020FA04F301FA05F243EA020321FA04F0CA
:1002F00001F0004121FA04F220EA020000EBD37081
:100300005EEA430E08BF20EAD37070BD94F0000F80
:100310000FD101F00046400041EB010111F4801FB4
:1003200008BF013CF7D041EA060195F0000F18BF65
:10033000704703F00046520043EB030313F4801FA1
:1003400008BF013DF7D043EA0603704794EA0C0F5B
:100350000CEA135518BF95EA0C0F0CD050EA410671
:1003600018BF52EA4306D1D181EA030101F00041EE
:100370004FF0000070BD50EA410606BF1046194616
:1003800052EA430619D094EA0C0F02D150EA013622
:1003900013D195EA0C0F05D152EA03361CBF104663
:1003A00019460AD181EA030101F0004141F0FE4102
:1003B00041F470014FF0000070BD41F0FE4141F486
:1003C000780170BD81F0004102E000BF83F000437E
:1003D00030B54FEA41044FEA430594EA050F08BFE0
:1003E00090EA020F1FBF54EA000C55EA020C7FEAA4
:1003F000645C7FEA655C00F0E2804FEA5454D4EB21
:100400005555B8BF6D420CDD2C4480EA020281EAEA
:10041000030382EA000083EA010180EA020281EA22
:100420000303362D88BF30BD11F0004F4FEA013174
:100430004FF4801C4CEA113102D0404261EB410183
:1004400013F0004F4FEA03334CEA133302D0524209
:1004500063EB430394EA050F00F0A780A4F10104C5
:10046000D5F1200E0DDB02FA0EFC22FA05F28018FF
:1004700041F1000103FA0EF2801843FA05F35941E5
:100480000EE0A5F120050EF1200E012A03FA0EFC64
:1004900028BF4CF0020C43FA05F3C01851EBE3718E
:1004A00001F0004507D54FF0000EDCF1000C7EEBAB
:1004B00000006EEB0101B1F5801F1BD3B1F5001FE9
:1004C0000CD349085FEA30004FEA3C0C04F1010408
:1004D0004FEA445212F5800F80F09A80BCF1004F31
:1004E00008BF5FEA500C50F1000041EB045141EAB3
:1004F000050130BD5FEA4C0C404141EB0101013C7C
:1005000028BFB1F5801FE9D291F0000F04BF01466A
:100510000020B1FA81F308BF2033A3F10B03B3F13C
:1005200020020CDA0C3208DD02F1140CC2F10C02CC
:1005300001FA0CF021FA02F10CE002F11402D8BF2A
:10054000C2F1200C01FA02F120FA0CFCDCBF41EAF6
:100550000C019040E41AA2BF01EB0451294330BDC5
:100560006FEA04041F3C1CDA0C340EDC04F11404A2
:10057000C4F1200220FA04F001FA02F340EA030079
:1005800021FA04F345EA030130BDC4F10C04C4F1BF
:10059000200220FA02F001FA04F340EA030029469F
:1005A00030BD21FA04F0294630BD94F0000F83F4E9
:1005B000801306BF81F480110134013D4EE77FEACC
:1005C000645C18BF7FEA655C29D094EA050F08BF18
:1005D00090EA020F05D054EA000C04BF19461046F9
:1005E00030BD91EA030F1EBF0021002030BD5FEA3D
:1005F000545C05D14000494128BF41F0004130BD65
:1006000014F580043CBF01F5801130BD01F00045B8
:1006100045F0FE4141F470014FF0000030BD7FEA2B
:10062000645C1ABF194610467FEA655C1CBF0B4626
:10063000024650EA013406BF52EA033591EA030F3D
:1006400041F4002130BD00BF90F0000F04BF002135
:10065000704730B54FF4806404F132044FF0000568
:100660004FF0000150E700BF90F0000F04BF0021E1
:10067000704730B54FF4806404F1320410F0004547
:1006800048BF40424FF000013EE700BF42004FEA42
:10069000E2014FEA31014FEA02701FBF12F07F43BF
:1006A00093F07F4F81F06051704732F07F4208BF76
:1006B000704793F07F4F04BF41F40021704730B57D
:1006C0004FF4607401F0004521F000411CE700BFC9
:1006D00050EA010208BF704730B54FF000050AE04C
:1006E00050EA010208BF704730B511F0004502D54D
:1006F000404261EB41014FF4806404F132045FEA4F
:10070000915C3FF4D8AE4FF003025FEADC0C18BFF7
:1007100003325FEADC0C18BF033202EBDC02C2F1E9
:10072000200300FA03FC20FA02F001FA03FE40EA7B
:100730000E0021FA02F11444BDE600BF4A0011D2B6
:1007400012F5001211D20DD56FF47873B3EB62522B
:100750000ED44FEAC12343F0004343EA505323FA37
:1007600002F070474FF00000704750EA013002D1AC
:100770004FF0FF3070474FF00000704780B500AF7A
:10078000024B1B68984700BF80BD00BF1C000020C3
:1007900080B500AF024B5B68984700BF80BD00BFCB
:1007A0001C00002080B500AF024B9B68984700BF3B
:1007B00080BD00BF1C00002080B500AF024BDB688D
:1007C000984700BF80BD00BF1C00002080B500AF6F
:1007D000024B1B69984700BF80BD00BF1C00002072
:1007E00080B485B000AF0346FB710B46BB71134666
:1007F0007B710023FB73FB79022B00F08280022BBC
:1008000000F3BC80002B02D0012B3DD0B6E0BB79B9
:10081000072B19D85E4B1B68BA7992000F2101FA99
:1008200002F2D24311465A4A0B401360584B1B68E0
:100830007979BA79920001FA02F21146544A0B43CF
:1008400013600123FB739CE0BB790F2B19D8504B2D
:100850005B68BA7992000F2101FA02F2D243114685
:100860004B4A0B4053604A4B5B687979BA799200E6
:1008700001FA02F21146464A0B4353600123FB730F
:100880007FE00023FB737CE0BB79072B19D8414B39
:100890001B68BA7992000F2101FA02F2D243114685
:1008A0003C4A0B4013603B4B1B687979BA79920044
:1008B00001FA02F21146374A0B4313600123FB731E
:1008C0005FE0BB790F2B19D8324B5B68BA79920085
:1008D0000F2101FA02F2D24311462E4A0B40536017
:1008E0002C4B5B687979BA79920001FA02F21146D1
:1008F000284A0B4353600123FB7342E00023FB7340
:100900003FE0BB79072B19D8234B1B68BA799200BB
:100910000F2101FA02F2D24311461F4A0B40136025
:100920001D4B1B687979BA79920001FA02F21146DF
:10093000194A0B4313600123FB7322E0BB790F2B91
:1009400019D8154B5B68BA7992000F2101FA02F2AF
:10095000D2431146104A0B4053600F4B5B687979C4
:10096000BA79920001FA02F211460B4A0B43536026
:100970000123FB7305E00023FB7302E00023FB73FC
:1009800000BFFB7B18461437BD4680BC704700BFD4
:1009900000080140000C01400010014080B485B007
:1009A00000AF0346FB710B46BB7113467B710023FE
:1009B000FB73FB79022B4ED0022B70DC002B02D094
:1009C000012B24D06BE07B79002B0ED0012B1AD1A8
:1009D000374BDB68BA79012101FA02F21146344A39
:1009E0000B43D3600123FB7310E0314BDB68BA7912
:1009F000012101FA02F2D24311462D4A0B40D36085
:100A00000123FB7302E00023FB7300BF4AE07B7904
:100A1000002B0ED0012B1AD1264BDB68BA790121AD
:100A200001FA02F21146234A0B43D3600123FB7300
:100A300010E0204BDB68BA79012101FA02F2D243BF
:100A400011461C4A0B40D3600123FB7302E00023D4
:100A5000FB7300BF26E07B79002B0ED0012B1AD14F
:100A6000154BDB68BA79012101FA02F21146124AEC
:100A70000B43D3600123FB7310E00F4BDB68BA79A3
:100A8000012101FA02F2D24311460B4A0B40D36016
:100A90000123FB7302E00023FB7300BF02E000238D
:100AA000FB7300BFFB7B18461437BD4680BC704704
:100AB00000080140000C01400010014080B483B0E8
:100AC00000AF0023FB71104B1B680F4A43F001037A
:100AD000136000BF0C4B1B6803F00203002BF9D01E
:100AE0000A4B1B68094A23F001031360074B1B687C
:100AF000064A23F0020313600123FB71FB791846B9
:100B00000C37BD4680BC7047001002400410024004
:100B100080B485B000AF03460A46FB711346BB7133
:100B20000023FB73BB79022B20D0022B2BDC002B84
:100B300002D0012B0DD026E0174B1B68FA7901215A
:100B400001FA02F21146144A0B4313600123FB73AE
:100B50001CE0114B1B68FA79012101FA02F21146DF
:100B60000D4A0B4313600123FB730FE00B4B1B6813
:100B7000FA79012101FA02F21146084A0B43136087
:100B80000123FB7302E00023FB7300BFFB7B1846CD
:100B90001437BD4680BC7047141002401810024044
:100BA00080B483B000AF0023FB710D4B1B680C4A6F
:100BB00023F0010313600A4B1B68094A23F0040366
:100BC0001360074B1B68064A43F0020313600123BE
:100BD000FB71FB7918460C37BD4680BC704700BFDF
:100BE00010E000E080B483B000AF0023FB710D4B38
:100BF0001B680C4A23F0010313600A4B00225A6061
:100C0000084B00229A60074B1B68064A23F4803386
:100C100013600123FB71FB7918460C37BD4680BC7D
:100C2000704700BF10E000E080B588B000AF78608A
:100C30000023FB777868FFF729FD4FF00002444B53
:100C4000FFF796FA02460B4610461946FFF776FD67
:100C500003467B617B69B3F1807F1AD23D4A7B6991
:100C600053603C4B1B683B4A43F00103136000BFD9
:100C7000384B1B6803F48033002BF9D0354B1B68CD
:100C8000344A23F001031360FFF7ACFF0123FB7725
:100C900058E07B69B3F1807F52D37A6940F2011347
:100CA000A3FB0213D21A52081344DB0D3B617A698D
:100CB00040F20113A3FB0213D11A49080B44D90DCA
:100CC0000B461B065B1AD31AFB60224AFB68536073
:100CD000204B1B681F4A43F00103136000BF1D4BEC
:100CE0001B6803F48033002BF9D01A4B1B68194A98
:100CF00023F001031360174B174A5A60154B1B680A
:100D0000144A43F0010313600023BB6109E000BFF4
:100D1000104B1B6803F48033002BF9D0BB690133FF
:100D2000BB61BA693B699A42F1D90A4B1B68094A0F
:100D300023F001031360FFF755FF0123FB7701E068
:100D4000FB7F00E0FB7F18462037BD4680BD00BF1B
:100D50000040BF4010E000E0FEFFFF0080B500AFA4
:100D6000124B1B68002B1ED0114B1B78002B11D18E
:100D7000104B1B680F4A23F0020313600D4B1B68D6
:100D80000C4A23F0010313600A4B00225A60094BFE
:100D900000229A60054B1B689847064B1B68054A62
:100DA00023F48033136000BF80BD00BF5C000020CF
:100DB0006000002010E000E080B500AFFFF77EFE8D
:100DC00002210220FFF7A4FE022202210020FFF7E9
:100DD00007FDFFF7E5FE012202210020FFF7DEFDFF
:100DE0000548FFF721FF002202210020FFF7D6FD72
:100DF0000148FFF719FFEEE700007A440D488546E9
:100E0000AFF300800C480D490D4A002302E0D4588E
:100E1000C4500433C4188C42F9D30A4A0A4C002344
:100E200001E013600432A242FBD300F011F8FFF797
:100E3000C3FFFEE70050002000000020000000205B
:100E4000B80E00080000002064000020FEE700004B
:100E500070B500260C4D0D4C641BA410A64209D1A0
:100E600000F01AF800260A4D0A4C641BA410A64292
:100E700005D170BD55F8043B98470136EEE755F8AB
:100E8000043B98470136F2E7B00E0008B00E0008A8
:100E9000B00E0008B40E0008F8B500BFF8BC08BCDE
:100EA0009E467047F8B500BFF8BC08BC9E46704728
:040EB00055010008E0
:040EB4003101000800
:0400000508000DFDE5
:00000001FF
