:020000040800F2
:100000000050002071030008C1030008C10300086C
:10001000C1030008C1030008C1030008000000007C
:10002000000000000000000000000000C103000804
:10003000C103000800000000C1030008C10300085C
:10004000C1030008C1030008C1030008C103000880
:10005000C1030008C1030008C1030008C103000870
:10006000C1030008C1030008C1030008C103000860
:10007000C1030008C1030008C1030008C103000850
:10008000C1030008C1030008C1030008C103000840
:10009000C1030008C1030008C1030008C103000830
:1000A000C1030008C1030008C1030008C103000820
:1000B000C1030008C1030008C1030008C103000810
:1000C000C1030008C1030008C1030008C103000800
:1000D000C1030008C1030008C1030008C1030008F0
:1000E000C1030008C103000800000000C1030008AC
:1000F000C1030008C1030008C1030008C1030008D0
:10010000C1030008C1030008C1030008C1030008BF
:10011000C1030008C1030008C1030008C1030008AF
:10012000C1030008C1030008C1030008C10300089F
:1001300010B5054C237833B9044B13B10448AFF321
:1001400000800123237010BD00000020000000008B
:100150000C04000808B5034B1BB103490348AFF377
:10016000008008BD00000000040000200C0400080E
:1001700080B485B000AF0346FB710023FB73FB79AD
:100180001F2B07D8FB7901229A40154B1A600123D7
:10019000FB731FE0FB791F2B0BD9FB793F2B08D892
:1001A000FB79203B01229A400E4B1A600123FB731E
:1001B00010E0FB793F2B0BD9FB79432B08D8FB7957
:1001C000403B01229A40084B1A600123FB7301E077
:1001D0000023FB73FB7B18461437BD4680BC704779
:1001E00000E100E004E100E008E100E080B485B057
:1001F00000AF0346FB710023FB73FB791F2B07D86D
:10020000FB7901229A40154B1A600123FB731FE012
:10021000FB791F2B0BD9FB793F2B08D8FB79203BAF
:1002200001229A400E4B1A600123FB7310E0FB7908
:100230003F2B0BD9FB79432B08D8FB79403B01229C
:100240009A40084B1A600123FB7301E00023FB7303
:10025000FB7B18461437BD4680BC704780E100E048
:1002600084E100E088E100E080B584B000AF03469F
:100270003960FB710023FB73FB793B2B18D83B687B
:100280000F2B15D8FB7903F00303DB003A689A4083
:10029000FB799B08DBB29B0003F1604303F56443E9
:1002A00012011A60064800F03DF80123FB7301E0DB
:1002B0000023FB73FB7B18461037BD4680BD00BF93
:1002C0000007FA0580B483B000AF0023FB71134B25
:1002D0001B68124A23F480231360104B1B680F4ADB
:1002E00043F48033136000BF0C4B1B6803F40033EE
:1002F000002BF9D00A4B1B68094A43F00103136035
:10030000074B1B68064A23F0020313600123FB71AD
:10031000FB7918460C37BD4680BC70470010024080
:100320000410024080B485B000AF78600023FB73F6
:10033000054A7B6813600123FB73FB7B1846143767
:10034000BD4680BC704700BF0CED00E080B500AF3B
:10035000FFF7B8FF2320FFF70BFF0A212320FFF749
:1003600083FF2320FFF704FF2320FFF73FFFF8E779
:100370000D488546AFF300800C480D490D4A002317
:1003800002E0D458C4500433C4188C42F9D30A4A4A
:100390000A4C002301E013600432A242FBD300F0B8
:1003A00011F8FFF7D3FFFEE7005000200000002007
:1003B000000000202C040008000000201C00002089
:1003C000FEE7000070B500260C4D0D4C641BA41018
:1003D000A64209D100F01AF800260A4D0A4C641B07
:1003E000A410A64205D170BD55F8043B98470136CC
:1003F000EEE755F8043B98470136F2E7240400087D
:10040000240400082404000828040008F8B500BFEC
:10041000F8BC08BC9E467047F8B500BFF8BC08BCE5
:040420009E4670473D
:040424005501000876
:040428003101000896
:04000005080003717B
:00000001FF
