:020000040800F2
:10000000005000201D1600086D1600086D1600082F
:100010006D1600086D1600086D160008000000003F
:100020000000000000000000000000006D16000845
:100030006D160008000000006D160008511500083C
:100040006D1600086D1600086D1600086D16000884
:100050006D1600086D1600084D09000861090008BA
:1000600075090008890900089D0900086D16000837
:100070006D1600086D1600086D1600086D16000854
:100080006D1600086D1600086D1600086D16000844
:100090006D1600086D1600086D1600086D16000834
:1000A0006D1600082D0F00086D1600086D1600086B
:1000B0006D1600086D1600086D1600086D16000814
:1000C0006D1600086D1600086D1600086D16000804
:1000D0006D1600086D1600086D1600086D160008F4
:1000E0006D1600086D160008000000006D1600086F
:1000F0006D1600086D1600086D1600086D160008D4
:100100006D1600086D1600086D1600086D160008C3
:100110006D1600086D1600086D1600086D160008B3
:100120006D1600086D1600086D1600086D160008A3
:1001300010B5054C237833B9044B13B10448AFF321
:1001400000800123237010BD10000020000000007B
:10015000B816000808B5034B1BB103490348AFF3B9
:10016000008008BD0000000014000020B816000840
:1001700081F0004102E000BF83F0004330B54FEA58
:1001800041044FEA430594EA050F08BF90EA020FC5
:100190001FBF54EA000C55EA020C7FEA645C7FEA58
:1001A000655C00F0E2804FEA5454D4EB5555B8BF7B
:1001B0006D420CDD2C4480EA020281EA030382EAEC
:1001C000000083EA010180EA020281EA0303362D7E
:1001D00088BF30BD11F0004F4FEA01314FF4801C51
:1001E0004CEA113102D0404261EB410113F0004F63
:1001F0004FEA03334CEA133302D0524263EB43031A
:1002000094EA050F00F0A780A4F10104D5F1200EB7
:100210000DDB02FA0EFC22FA05F2801841F1000112
:1002200003FA0EF2801843FA05F359410EE0A5F1E6
:1002300020050EF1200E012A03FA0EFC28BF4CF017
:10024000020C43FA05F3C01851EBE37101F00045CD
:1002500007D54FF0000EDCF1000C7EEB00006EEBDA
:100260000101B1F5801F1BD3B1F5001F0CD3490864
:100270005FEA30004FEA3C0C04F101044FEA4452BB
:1002800012F5800F80F09A80BCF1004F08BF5FEA42
:10029000500C50F1000041EB045141EA050130BD22
:1002A0005FEA4C0C404141EB0101013C28BFB1F534
:1002B000801FE9D291F0000F04BF01460020B1FA7F
:1002C00081F308BF2033A3F10B03B3F120020CDA52
:1002D0000C3208DD02F1140CC2F10C0201FA0CF030
:1002E00021FA02F10CE002F11402D8BFC2F1200C95
:1002F00001FA02F120FA0CFCDCBF41EA0C0190404B
:10030000E41AA2BF01EB0451294330BD6FEA040493
:100310001F3C1CDA0C340EDC04F11404C4F120027E
:1003200020FA04F001FA02F340EA030021FA04F390
:1003300045EA030130BDC4F10C04C4F1200220FAE7
:1003400002F001FA04F340EA0300294630BD21FA25
:1003500004F0294630BD94F0000F83F4801306BFEB
:1003600081F480110134013D4EE77FEA645C18BFDF
:100370007FEA655C29D094EA050F08BF90EA020F76
:1003800005D054EA000C04BF1946104630BD91EA6E
:10039000030F1EBF0021002030BD5FEA545C05D171
:1003A0004000494128BF41F0004130BD14F58004B0
:1003B0003CBF01F5801130BD01F0004545F0FE4124
:1003C00041F470014FF0000030BD7FEA645C1ABF59
:1003D000194610467FEA655C1CBF0B46024650EA90
:1003E000013406BF52EA033591EA030F41F40021BC
:1003F00030BD00BF90F0000F04BF0021704730B542
:100400004FF4806404F132044FF000054FF0000116
:1004100050E700BF90F0000F04BF0021704730B5D7
:100420004FF4806404F1320410F0004548BF4042AC
:100430004FF000013EE700BF42004FEAE2014FEA01
:1004400031014FEA02701FBF12F07F4393F07F4FDC
:1004500081F06051704732F07F4208BF704793F0DF
:100460007F4F04BF41F40021704730B54FF46074F2
:1004700001F0004521F000411CE700BF50EA0102F5
:1004800008BF704730B54FF000050AE050EA01029E
:1004900008BF704730B511F0004502D5404261EB0E
:1004A00041014FF4806404F132045FEA915C3FF44F
:1004B000D8AE4FF003025FEADC0C18BF03325FEAEC
:1004C000DC0C18BF033202EBDC02C2F1200300FA9D
:1004D00003FC20FA02F001FA03FE40EA0E0021FAC2
:1004E00002F11444BDE600BF70B54FF0FF0C4CF4B0
:1004F000E06C1CEA11541DBF1CEA135594EA0C0F62
:1005000095EA0C0F00F0DEF82C4481EA030621EA9C
:100510004C5123EA4C5350EA013518BF52EA0335D7
:1005200041F4801143F4801338D0A0FB02CE4FF089
:100530000005E1FB02E506F00042E0FB03E54FF0B9
:100540000006E1FB03569CF0000F18BF4EF0010EB1
:10055000A4F1FF04B6F5007F64F5407404D25FEAAD
:100560004E0E6D4146EB060642EAC62141EA555160
:100570004FEAC52040EA5E504FEACE2EB4F1FD0CA2
:1005800088BFBCF5E06F1ED8BEF1004F08BF5FEA20
:10059000500E50F1000041EB045170BD06F00046D2
:1005A00046EA010140EA020081EA0301B4EB5C047F
:1005B000C2BFD4EB0C0541EA045170BD41F4801177
:1005C0004FF0000E013C00F3AB8014F1360FDEBF9C
:1005D000002001F0004170BDC4F10004203C35DA78
:1005E0000C341BDC04F11404C4F1200500FA05F3FB
:1005F00020FA04F001FA05F240EA020001F000429C
:1006000021F0004110EBD37021FA04F642EB060111
:100610005EEA430E08BF20EAD37070BDC4F10C043B
:10062000C4F1200500FA04F320FA05F001FA04F2FF
:1006300040EA020001F0004110EBD37041F10001EB
:100640005EEA430E08BF20EAD37070BDC4F12005F6
:1006500000FA05F24EEA020E20FA04F301FA05F25E
:1006600043EA020321FA04F001F0004121FA04F206
:1006700020EA020000EBD3705EEA430E08BF20EAD6
:10068000D37070BD94F0000F0FD101F00046400010
:1006900041EB010111F4801F08BF013CF7D041EA92
:1006A000060195F0000F18BF704703F00046520096
:1006B00043EB030313F4801F08BF013DF7D043EA67
:1006C0000603704794EA0C0F0CEA135518BF95EA1D
:1006D0000C0F0CD050EA410618BF52EA4306D1D1A4
:1006E00081EA030101F000414FF0000070BD50EAC3
:1006F000410606BF1046194652EA430619D094EA4D
:100700000C0F02D150EA013613D195EA0C0F05D136
:1007100052EA03361CBF104619460AD181EA03018A
:1007200001F0004141F0FE4141F470014FF0000042
:1007300070BD41F0FE4141F4780170BD70B54FF0DD
:10074000FF0C4CF4E06C1CEA11541DBF1CEA13555D
:1007500094EA0C0F95EA0C0F00F0A7F8A4EB05043F
:1007600081EA030E52EA03354FEA013100F0888036
:100770004FEA03334FF0805545EA131343EA1263FF
:100780004FEA022245EA111545EA10654FEA0026B4
:100790000EF000419D4208BF964244F1FD0404F56D
:1007A000407402D25B084FEA3202B61A65EB0305C9
:1007B0005B084FEA32024FF480104FF4002CB6EB86
:1007C000020E75EB030E22BFB61A754640EA0C0006
:1007D0005B084FEA3202B6EB020E75EB030E22BF46
:1007E000B61A754640EA5C005B084FEA3202B6EB87
:1007F000020E75EB030E22BFB61A754640EA9C0046
:100800005B084FEA3202B6EB020E75EB030E22BF15
:10081000B61A754640EADC0055EA060E18D04FEAD3
:10082000051545EA16754FEA06164FEAC30343EA73
:1008300052734FEAC2025FEA1C1CC0D111F4801F40
:100840000BD141EA00014FF000004FF0004CB6E739
:1008500011F4801F04BF01430020B4F1FD0C88BFD8
:10086000BCF5E06F3FF6AFAEB5EB030C04BFB6EBE3
:10087000020C5FEA500C50F1000041EB045170BDD6
:100880000EF0004E4EEA113114EB5C04C2BFD4EB03
:100890000C0541EA045170BD41F480114FF0000E87
:1008A000013C90E645EA060E8DE60CEA135594EA03
:1008B0000C0F08BF95EA0C0F3FF43BAF94EA0C0F06
:1008C0000AD150EA01347FF434AF95EA0C0F7FF47B
:1008D00025AF104619462CE795EA0C0F06D152EACF
:1008E00003353FF4FDAE1046194622E750EA4106B3
:1008F00018BF52EA43067FF4C5AE50EA41047FF4C4
:100900000DAF52EA43057FF4EBAE12E74A0011D275
:1009100012F5001211D20DD56FF47873B3EB625259
:100920000ED44FEAC12343F0004343EA505323FA65
:1009300002F070474FF00000704750EA013002D1DA
:100940004FF0FF3070474FF00000704780B500AFA8
:10095000024B1B68984700BF80BD00BF2C000020E1
:1009600080B500AF024B5B68984700BF80BD00BFF9
:100970002C00002080B500AF024B9B68984700BF59
:1009800080BD00BF2C00002080B500AF024BDB68AB
:10099000984700BF80BD00BF2C00002080B500AF8D
:1009A000024B1B69984700BF80BD00BF2C00002090
:1009B00080B485B000AF0346FB710B46BB71134694
:1009C0007B710023FB73FB79022B00F08280022BEA
:1009D00000F3BC80002B02D0012B3DD0B6E0BB79E8
:1009E000072B19D85E4B1B68BA7992000F2101FAC8
:1009F00002F2D24311465A4A0B401360584B1B680F
:100A00007979BA79920001FA02F21146544A0B43FD
:100A100013600123FB739CE0BB790F2B19D8504B5B
:100A20005B68BA7992000F2101FA02F2D2431146B3
:100A30004B4A0B4053604A4B5B687979BA79920014
:100A400001FA02F21146464A0B4353600123FB733D
:100A50007FE00023FB737CE0BB79072B19D8414B67
:100A60001B68BA7992000F2101FA02F2D2431146B3
:100A70003C4A0B4013603B4B1B687979BA79920072
:100A800001FA02F21146374A0B4313600123FB734C
:100A90005FE0BB790F2B19D8324B5B68BA799200B3
:100AA0000F2101FA02F2D24311462E4A0B40536045
:100AB0002C4B5B687979BA79920001FA02F21146FF
:100AC000284A0B4353600123FB7342E00023FB736E
:100AD0003FE0BB79072B19D8234B1B68BA799200EA
:100AE0000F2101FA02F2D24311461F4A0B40136054
:100AF0001D4B1B687979BA79920001FA02F211460E
:100B0000194A0B4313600123FB7322E0BB790F2BBF
:100B100019D8154B5B68BA7992000F2101FA02F2DD
:100B2000D2431146104A0B4053600F4B5B687979F2
:100B3000BA79920001FA02F211460B4A0B43536054
:100B40000123FB7305E00023FB7302E00023FB732A
:100B500000BFFB7B18461437BD4680BC704700BF02
:100B600000080140000C01400010014080B584B035
:100B700000AF03463960FB710023FB733B681A88A2
:100B8000FB791146184600F0BDF82323BB81BA89D2
:100B9000FB791146184600F09BF83B685A79FB79BF
:100BA0001146184600F046F93B689A78FB791146E1
:100BB000184600F01DF83B68DA78FB7911461846B4
:100BC00000F04AFA3B681A79FB791146184600F0A2
:100BD000B3F83B689A79FB791146184600F068F93A
:100BE0000123FB73FB7B18461037BD4680BD000018
:100BF00080B485B000AF03460A46FB711346BB7153
:100C00000023FB73BB79022B28D0022B53DC002B73
:100C100002D0012B11D04EE0FB792C4A52F8233040
:100C20001B889AB2FB79294951F8233022F010022F
:100C300092B21A800123FB7342E0FB79234A52F8F7
:100C400023301B889AB2FB79204951F8233042F0B7
:100C5000100292B21A800123FB7331E0FB791B4A28
:100C600052F823301B889AB2FB79184951F8233087
:100C700022F0100292B21A80FB79144A52F8233003
:100C80001B889AB2FB79114951F8233042F0400297
:100C900092B21A80FB790D4A52F823301B889AB21F
:100CA000FB790A4951F8233022F0200292B21A80CF
:100CB0000123FB7304E00023FB730023FB7300BFDD
:100CC000FB7B18461437BD4680BC704700000020EF
:100CD00080B485B000AF03460A46FB711346BB8063
:100CE0000023FB73FB79064A52F82330BA881A8531
:100CF0000123FB73FB7B18461437BD4680BC70474D
:100D00000000002080B485B000AF03460A46FB71A6
:100D10001346BB800023FB73FB79064A52F823304D
:100D2000BA889A850123FB73FB7B18461437BD46AE
:100D300080BC70470000002080B485B000AF03463F
:100D40000A46FB711346BB710023FB73BB79022B70
:100D500044D0022B61DC002B02D0012B1FD05CE0C1
:100D6000FB79334A52F823301B889AB2FB79304919
:100D700051F8233022F4807292B21A80FB792C4A07
:100D800052F823301B889AB2FB79294951F8233055
:100D900022F4007292B21A800123FB7342E0FB79C5
:100DA000234A52F823301B889AB2FB79204951F824
:100DB000233042F4807292B21A80FB791C4A52F8B6
:100DC00023301B889AB2FB79194951F8233022F459
:100DD000007292B21A800123FB7323E0FB79144A5C
:100DE00052F823301B889AB2FB79114951F823300D
:100DF00022F4807292B21A80FB790D4A52F82330A5
:100E00001B889AB2FB790A4951F8233042F40072E8
:100E100092B21A800123FB7304E00023FB730023CA
:100E2000FB7300BFFB7B18461437BD4680BC704780
:100E30000000002080B485B000AF03460A46FB7175
:100E40001346BB710023FB73BB79002B02D0012B2F
:100E500011D021E0FB79154A52F823301B889AB251
:100E6000FB79124951F8233022F0800292B21A80A5
:100E70000123FB7313E0FB790C4A52F823301B88E3
:100E80009AB2FB79094951F8233042F0800292B2BC
:100E90001A800123FB7302E00023FB7300BFFB7B7E
:100EA00018461437BD4680BC704700BF00000020C4
:100EB00080B485B000AF03460A46FB711346BB7190
:100EC0000023FB73BB79002B02D0012B11D021E052
:100ED000FB79154A52F823309B899AB2FB79124963
:100EE00051F8233022F0010292B29A810123FB7360
:100EF00013E0FB790C4A52F823309B899AB2FB79B4
:100F0000094951F8233042F0010292B29A8101233B
:100F1000FB7302E00023FB7300BFFB7B1846143712
:100F2000BD4680BC704700BF0000002080B500AF08
:100F3000164B1B78DBB203F00103002B17D1144BC7
:100F40001B689B899AB2124B1B6822F0010292B275
:100F50009A810F4B1B681B889AB20D4B1B6822F0BD
:100F6000010292B21A800A4B1B6800229A85094B33
:100F70001B689847064B1B681B8A9AB2044B1B6878
:100F800022F0010292B21A8200BF80BD6C000020E4
:100F9000000000207000002080B586B000AF03463E
:100FA0003960FB710023FB753B6899783B689A793F
:100FB000FB79184600F0A6F83B689B881A463B6808
:100FC0001B8802FB03F33B61214A3B69B2FBF3F34D
:100FD000FB81FA89FB7911461846FFF779FE3B68D9
:100FE0001A88FB7911461846FFF78CFEFB79194ADF
:100FF00052F823301B889AB2FB79164951F82330F6
:1010000042F0800292B21A80FB79124A52F82330E1
:101010001B889AB2FB790F4951F8233042F0010244
:1010200092B21A80FB790B4A52F823309B8A9AB20B
:10103000FB79084951F8233042F0010292B29A82BA
:101040000123FB75FB7D18461837BD4680BD00BFE8
:10105000005125020000002080B485B000AF034697
:101060000A46FB711346BB710023FB73BB79002B4F
:1010700002D0022B1FD03DE0FB79214A52F82330E9
:101080001B889AB2FB791E4951F8233022F02002C6
:1010900092B21A80FB791A4A52F823301B889AB20E
:1010A000FB79174951F8233022F0400292B21A809E
:1010B0000123FB731EE0FB79114A52F823301B8891
:1010C0009AB2FB790E4951F8233022F0200292B2F5
:1010D0001A80FB790A4A52F823301B889AB2FB79AE
:1010E000074951F8233042F0400292B21A8001239E
:1010F000FB7300BFFB7B18461437BD4680BC7047AE
:101100000000002080B485B000AF0346FB710B46A1
:10111000BB7113467B710023FB73BB79032B00F279
:10112000378101A252F823F039110008CF110008CD
:1011300065120008FB120008FB799B4A52F8233025
:101140001B8B9AB2FB79984951F8233022F0F002B8
:1011500092B21A83FB79944A52F823301B8B9BB2CC
:101160001AB27B791B011BB2134319B2FB798E4A69
:1011700052F823308AB21A83FB798B4A52F8233013
:101180001B8B9AB2FB79884951F8233042F0080250
:1011900092B21A83FB79844A52F823301B8C9AB29C
:1011A000FB79814951F8233042F0010292B21A844E
:1011B000FB797D4A52F823301B8C9AB2FB797A492D
:1011C00051F8233042F0020292B21A84E3E0FB7934
:1011D000754A52F823301B8B9AB2FB79724951F849
:1011E0002330C2F30B0292B21A83FB796E4A52F893
:1011F00023301B8B9BB21AB27B791B031BB21343A8
:1012000019B2FB79684A52F823308AB21A83FB7903
:10121000654A52F823301B8B9AB2FB79624951F828
:10122000233042F4006292B21A83FB795E4A52F88C
:1012300023301B8C9AB2FB795B4951F8233042F082
:10124000100292B21A84FB79574A52F823301B8C51
:101250009AB2FB79544951F8233042F0200292B2FD
:101260001A8498E0FB79504A52F823309B8B9AB24B
:10127000FB794D4951F8233022F0F00292B29A8363
:10128000FB79494A52F823309B8B9BB21AB27B7987
:101290001B011BB2134319B2FB79434A52F82330A6
:1012A0008AB29A83FB79404A52F823309B8B9AB2D8
:1012B000FB793D4951F8233042F0080292B29A83FB
:1012C000FB79394A52F823301B8C9AB2FB793649A4
:1012D00051F8233042F4807292B21A84FB79324A78
:1012E00052F823301B8C9AB2FB792F4951F82330E6
:1012F00042F4007292B21A844DE0FB792A4A52F805
:1013000023309B8B9AB2FB79274951F8233022F086
:10131000F00292B29A83FB79234A52F823309B8BD6
:101320009BB21AB27B791B031BB2134319B2FB7930
:101330001D4A52F823308AB29A83FB791A4A52F82E
:1013400023309B8B9AB2FB79174951F8233042F432
:10135000006292B29A83FB79134A52F823301B8CB5
:101360009AB2FB79104951F8233042F4805292B27C
:101370001A84FB790C4A52F823301B8C9AB2FB7901
:10138000094951F8233042F4005292B21A8402E023
:101390000023FB7300BF0123FB73FB7B184614374C
:1013A000BD4680BC704700BF0000002080B584B0FF
:1013B00000AF0346FB710B46BB7113467B710023E4
:1013C000FB73FB79274A52F823309B8D9BB21A4658
:1013D0007B7902FB03F31846FFF71CF84FF000027D
:1013E000214BFFF7ABF902460B4610461946FFF7B3
:1013F0008DFA0346BB81BB79032B28D801A252F892
:1014000023F000BF1514000823140008311400084D
:101410003F140008FB79134A52F82330BA899A86A0
:1014200018E0FB790F4A52F82330BA891A8711E085
:10143000FB790C4A52F82330BA899A870AE0FB7983
:10144000084A52F82330BA89A3F8402002E000236A
:10145000FB7300BF0123FB73FB7B18461037BD46AF
:1014600080BD00BF000000200000594080B483B060
:1014700000AF0023FB71104B1B680F4A43F00103C0
:10148000136000BF0C4B1B6803F00203002BF9D064
:101490000A4B1B68094A23F001031360074B1B68C2
:1014A000064A23F0020313600123FB71FB791846FF
:1014B0000C37BD4680BC704700100240041002404B
:1014C00080B485B000AF03460A46FB711346BB717A
:1014D0000023FB73BB79022B20D0022B2BDC002BCB
:1014E00002D0012B0DD026E0174B1B68FA790121A1
:1014F00001FA02F21146144A0B4313600123FB73F5
:101500001CE0114B1B68FA79012101FA02F2114625
:101510000D4A0B4313600123FB730FE00B4B1B6859
:10152000FA79012101FA02F21146084A0B431360CD
:101530000123FB7302E00023FB7300BFFB7B184613
:101540001437BD4680BC704714100240181002408A
:1015500080B500AF124B1B68002B1ED0114B1B78BF
:10156000002B11D1104B1B680F4A23F002031360AC
:101570000D4B1B680C4A23F0010313600A4B002239
:101580005A60094B00229A60054B1B689847064B2E
:101590001B68054A23F48033136000BF80BD00BF81
:1015A000740000207800002010E000E080B584B0D6
:1015B00000AFFFF75BFF02210B20FFF781FF022145
:1015C0000220FFF77DFF02210020FFF779FF0B22A9
:1015D00008210020FFF7ECF90E4A07F1080392E812
:1015E000030083E8030007F1080319460020FFF712
:1015F000BDFA094A3B4692E8030083E803003B46F4
:1016000019460020FFF7C8FC0A2200210020FFF73E
:10161000CDFEFEE7D0160008D81600080D48854616
:10162000AFF300800C480D490D4A002302E0D45866
:10163000C4500433C4188C42F9D30A4A0A4C00231C
:1016400001E013600432A242FBD300F011F8FFF76F
:10165000ADFFFEE700500020000000201000002039
:10166000E8160008100000207C000020FEE70000C3
:1016700070B500260C4D0D4C641BA410A64209D178
:1016800000F01AF800260A4D0A4C641BA410A6426A
:1016900005D170BD55F8043B98470136EEE755F883
:1016A000043B98470136F2E7E0160008E016000810
:1016B000E0160008E4160008F8B500BFF8BC08BC46
:1016C0009E467047F8B500BFF8BC08BC9E46704700
:1016D000E803010000010100E8030000E803060040
:0416E00055010008A8
:0416E40031010008C8
:1016E800002C0140000000400004004000080040B9
:040000050800161DBC
:00000001FF
