:020000040800F2
:10000000005000200D0C00085D0C00085D0C00087D
:100010005D0C00085D0C00085D0C0008000000008D
:100020000000000000000000000000005D0C00085F
:100030005D0C0008000000005D0C0008390B000892
:100040005D0C00085D0C00085D0C00085D0C0008EC
:100050005D0C00085D0C00087101000885010008B6
:1000600099010008AD010008C10100085D0C0008FD
:100070005D0C00085D0C00085D0C00085D0C0008BC
:100080005D0C00085D0C00085D0C00085D0C0008AC
:100090005D0C00085D0C00085D0C00085D0C00089C
:1000A0005D0C00083D0900085D0C00085D0C0008AF
:1000B0005D0C00085D0C00085D0C00085D0C00087C
:1000C0005D0C00085D0C00085D0C00085D0C00086C
:1000D0005D0C00085D0C00085D0C00085D0C00085C
:1000E0005D0C00085D0C0008000000005D0C0008BD
:1000F0005D0C00085D0C00085D0C00085D0C00083C
:100100005D0C00085D0C00085D0C00085D0C00082B
:100110005D0C00085D0C00085D0C00085D0C00081B
:100120005D0C00085D0C00085D0C00085D0C00080B
:1001300010B5054C237833B9044B13B10448AFF321
:1001400000800123237010BD10000020000000007B
:10015000A80C000808B5034B1BB103490348AFF3D3
:10016000008008BD0000000014000020A80C00085A
:1001700080B500AF024B1B68984700BF80BD00BF31
:100180002C00002080B500AF024B5B68984700BF91
:1001900080BD00BF2C00002080B500AF024B9B68E3
:1001A000984700BF80BD00BF2C00002080B500AF85
:1001B000024BDB68984700BF80BD00BF2C000020C9
:1001C00080B500AF024B1B69984700BF80BD00BFE0
:1001D0002C00002080B485B000AF0346FB710B46B5
:1001E000BB7113467B710023FB73FB79022B00F07C
:1001F0008280022B00F3BC80002B02D0012B3DD06B
:10020000B6E0BB79072B19D85E4B1B68BA79920010
:100210000F2101FA02F2D24311465A4A0B401360F1
:10022000584B1B687979BA79920001FA02F21146AB
:10023000544A0B4313600123FB739CE0BB790F2BE3
:1002400019D8504B5B68BA7992000F2101FA02F27B
:10025000D24311464B4A0B4053604A4B5B68797955
:10026000BA79920001FA02F21146464A0B435360F2
:100270000123FB737FE00023FB737CE0BB79072B3A
:1002800019D8414B1B68BA7992000F2101FA02F28A
:10029000D24311463C4A0B4013603B4B1B687979B3
:1002A000BA79920001FA02F21146374A0B43136001
:1002B0000123FB735FE0BB790F2B19D8324B5B68CE
:1002C000BA7992000F2101FA02F2D24311462E4A66
:1002D0000B4053602C4B5B687979BA79920001FA34
:1002E00002F21146284A0B4353600123FB7342E09C
:1002F0000023FB733FE0BB79072B19D8234B1B6806
:10030000BA7992000F2101FA02F2D24311461F4A34
:100310000B4013601D4B1B687979BA79920001FA82
:1003200002F21146194A0B4313600123FB7322E0CA
:10033000BB790F2B19D8154B5B68BA7992000F2146
:1003400001FA02F2D2431146104A0B4053600F4BA0
:100350005B687979BA79920001FA02F211460B4A88
:100360000B4353600123FB7305E00023FB7302E0A2
:100370000023FB7300BFFB7B18461437BD4680BCCF
:10038000704700BF00080140000C01400010014010
:1003900080B485B000AF0346FB710B46BB711346BA
:1003A0007B710023FB73FB79022B4ED0022B70DC98
:1003B000002B02D0012B24D06BE07B79002B0ED0D8
:1003C000012B1AD1374BDB68BA79012101FA02F20D
:1003D0001146344A0B43D3600123FB7310E0314BC9
:1003E000DB68BA79012101FA02F2D24311462D4AA3
:1003F0000B40D3600123FB7302E00023FB7300BFBB
:100400004AE07B79002B0ED0012B1AD1264BDB68FA
:10041000BA79012101FA02F21146234A0B43D36053
:100420000123FB7310E0204BDB68BA79012101FA4C
:1004300002F2D24311461C4A0B40D3600123FB73E6
:1004400002E00023FB7300BF26E07B79002B0ED077
:10045000012B1AD1154BDB68BA79012101FA02F29E
:100460001146124A0B43D3600123FB7310E00F4B7C
:10047000DB68BA79012101FA02F2D24311460B4A34
:100480000B40D3600123FB7302E00023FB7300BF2A
:1004900002E00023FB7300BFFB7B18461437BD4608
:1004A00080BC704700080140000C01400010014072
:1004B00080B584B000AF03463960FB710023FB7345
:1004C0003B681A88FB791146184600F0BDF82323D3
:1004D000BB81BA89FB791146184600F09BF83B684E
:1004E0005A79FB791146184600F046F93B689A782C
:1004F000FB791146184600F01DF83B68DA78FB7965
:100500001146184600F050FA3B681A79FB791146FB
:10051000184600F0B3F83B689A79FB791146184603
:1005200000F068F90123FB73FB7B18461037BD46CA
:1005300080BD000080B485B000AF03460A46FB7161
:100540001346BB710023FB73BB79022B28D0022B0F
:1005500053DC002B02D0012B11D04EE0FB792C4A4A
:1005600052F823301B889AB2FB79294951F823307D
:1005700022F0100292B21A800123FB7342E0FB7951
:10058000234A52F823301B889AB2FB79204951F84C
:10059000233042F0100292B21A800123FB7331E043
:1005A000FB791B4A52F823301B889AB2FB79184911
:1005B00051F8233022F0100292B21A80FB79144ACB
:1005C00052F823301B889AB2FB79114951F8233035
:1005D00042F0400292B21A80FB790D4A52F8233061
:1005E0001B889AB2FB790A4951F8233022F0200285
:1005F00092B21A800123FB7304E00023FB730023F3
:10060000FB7300BFFB7B18461437BD4680BC7047A8
:100610000000002080B485B000AF03460A46FB719D
:100620001346BB800023FB73FB79064A52F8233044
:10063000BA881A850123FB73FB7B18461437BD4625
:1006400080BC70470000002080B485B000AF034636
:100650000A46FB711346BB800023FB73FB79064AF5
:1006600052F82330BA889A850123FB73FB7B184626
:100670001437BD4680BC70470000002080B485B0B0
:1006800000AF03460A46FB711346BB710023FB73A0
:10069000BB79022B44D0022B61DC002B02D0012B52
:1006A0001FD05CE0FB79334A52F823301B889AB2A2
:1006B000FB79304951F8233022F4807292B21A80CB
:1006C000FB792C4A52F823301B889AB2FB792949CE
:1006D00051F8233022F4007292B21A800123FB7386
:1006E00042E0FB79234A52F823301B889AB2FB7907
:1006F000204951F8233042F4807292B21A80FB797B
:100700001C4A52F823301B889AB2FB79194951F8D8
:10071000233022F4007292B21A800123FB7323E08B
:10072000FB79144A52F823301B889AB2FB7911499D
:1007300051F8233022F4807292B21A80FB790D4A6C
:1007400052F823301B889AB2FB790A4951F82330BA
:1007500042F4007292B21A800123FB7304E000237A
:10076000FB730023FB7300BFFB7B18461437BD46A9
:1007700080BC70470000002080B485B000AF034605
:100780000A46FB711346BB710023FB73BB79002B38
:1007900002D0012B11D021E0FB79154A52F8233009
:1007A0001B889AB2FB79124951F8233022F080025B
:1007B00092B21A800123FB7313E0FB790C4A52F8C2
:1007C00023301B889AB2FB79094951F8233042F053
:1007D000800292B21A800123FB7302E00023FB73B4
:1007E00000BFFB7B18461437BD4680BC704700BF76
:1007F0000000002080B485B000AF03460A46FB71BC
:100800001346BB710023FB73BB79002B02D0012B75
:1008100011D021E0FB79154A52F823309B899AB216
:10082000FB79124951F8233022F0010292B29A81E9
:100830000123FB7313E0FB790C4A52F823309B89A8
:100840009AB2FB79094951F8233042F0010292B281
:100850009A810123FB7302E00023FB7300BFFB7B43
:1008600018461437BD4680BC704700BF000000200A
:1008700080B485B000AF0346FB710B46BB801346C6
:100880007B800023FB73FB792B4A52F82330BA8814
:10089000798801FB02F292B29A85FB79264A52F8D6
:1008A00023309B899AB2FB79234951F8233022F0F7
:1008B000010292B29A81FB791F4A52F823301B88B9
:1008C0009AB2FB791C4951F8233042F0010292B2EE
:1008D0001A8000BFFB79184A52F823309B8C9BB2D8
:1008E0001946FB79144A52F823309B8D9BB2013B89
:1008F0009942EFD1FB79104A52F8233000229A84B2
:10090000FB790D4A52F823301B889AB2FB790A49C9
:1009100051F8233022F0010292B21A80FB79064A84
:1009200052F8233000229A850123FB73FB7B184683
:100930001437BD4680BC70470000002080B500AF72
:10094000164B1B78DBB203F00103002B17D1144BBD
:100950001B689B899AB2124B1B6822F0010292B26B
:100960009A810F4B1B681B889AB20D4B1B6822F0B3
:10097000010292B21A800A4B1B6800229A85094B29
:100980001B689847064B1B681B8A9AB2044B1B686E
:1009900022F0010292B21A8200BF80BD6C000020DA
:1009A000000000207000002080B485B000AF034636
:1009B0000A46FB711346BB710023FB73BB79002B06
:1009C00002D0022B1FD03DE0FB79214A52F82330A0
:1009D0001B889AB2FB791E4951F8233022F020027D
:1009E00092B21A80FB791A4A52F823301B889AB2C5
:1009F000FB79174951F8233022F0400292B21A8055
:100A00000123FB731EE0FB79114A52F823301B8847
:100A10009AB2FB790E4951F8233022F0200292B2AB
:100A20001A80FB790A4A52F823301B889AB2FB7964
:100A3000074951F8233042F0400292B21A80012354
:100A4000FB7300BFFB7B18461437BD4680BC704764
:100A50000000002080B483B000AF0023FB71104B76
:100A60001B680F4A43F00103136000BF0C4B1B6867
:100A700003F00203002BF9D00A4B1B68094A23F04C
:100A800001031360074B1B68064A23F0020313603F
:100A90000123FB71FB7918460C37BD4680BC7047BB
:100AA000001002400410024080B485B000AF03463D
:100AB0000A46FB711346BB710023FB73BB79022B03
:100AC00020D0022B2BDC002B02D0012B0DD026E0F6
:100AD000174B1B68FA79012101FA02F21146144AF8
:100AE0000B4313600123FB731CE0114B1B68FA7965
:100AF000012101FA02F211460D4A0B431360012352
:100B0000FB730FE00B4B1B68FA79012101FA02F22B
:100B10001146084A0B4313600123FB7302E00023D4
:100B2000FB7300BFFB7B18461437BD4680BC704783
:100B3000141002401810024080B500AF124B1B6821
:100B4000002B1ED0114B1B78002B11D1104B1B68B2
:100B50000F4A23F0020313600D4B1B680C4A23F06D
:100B6000010313600A4B00225A60094B00229A606D
:100B7000054B1B689847064B1B68054A23F48033D6
:100B8000136000BF80BD00BF74000020780000200B
:100B900010E000E080B582B000AFFFF75BFF0221FC
:100BA0000B20FFF781FF02210220FFF77DFF0122CA
:100BB00001210020FFF70EFB134A3B4692E8030099
:100BC00083E803003B4619460020FFF771FC48F616
:100BD0009F410020FFF71EFD012201210020FFF7A9
:100BE000D7FB01224FF47A710020FFF741FE00226B
:100BF00001210020FFF7CCFB01224FF47A71002085
:100C0000FFF736FEE8E700BFC00C00080D48854638
:100C1000AFF300800C480D490D4A002302E0D45880
:100C2000C4500433C4188C42F9D30A4A0A4C002336
:100C300001E013600432A242FBD300F011F8FFF789
:100C4000A9FFFEE700500020000000201000002057
:100C5000D00C0008100000207C000020FEE70000FF
:100C600070B500260C4D0D4C641BA410A64209D192
:100C700000F01AF800260A4D0A4C641BA410A64284
:100C800005D170BD55F8043B98470136EEE755F89D
:100C9000043B98470136F2E7C80C0008C80C00086E
:100CA000C80C0008CC0C0008F8B500BFF8BC08BCA4
:100CB0009E467047F8B500BFF8BC08BC9E4670471A
:080CC000E8030000000101003F
:040CC80055010008CA
:040CCC0031010008EA
:100CD000002C0140000000400004004000080040DB
:0400000508000C0DD6
:00000001FF
