:020000040800F2
:1000000000500020011A0008511A0008511A000877
:10001000511A0008511A0008511A00080000000087
:10002000000000000000000000000000511A00085D
:10003000511A000800000000511A0008C1140008FD
:10004000511A0008511A0008511A0008511A0008E4
:10005000511A0008511A0008410A0008550A000800
:10006000690A00087D0A0008910A0008511A000870
:10007000511A0008511A0008511A0008511A0008B4
:10008000511A0008511A0008511A0008511A0008A4
:10009000511A0008511A0008511A0008511A000894
:1000A000511A0008511A0008511A0008511A000884
:1000B000511A0008511A0008511A0008511A000874
:1000C000511A0008511A0008511A0008511A000864
:1000D000511A0008511A0008511A0008511A000854
:1000E000511A0008511A000800000000511A0008B7
:1000F000511A0008511A0008511A0008511A000834
:10010000511A0008511A0008511A0008511A000823
:10011000511A0008511A0008511A0008511A000813
:10012000511A0008511A0008511A0008511A000803
:1001300010B5054C237833B9044B13B10448AFF321
:1001400000800123237010BD00000020000000008B
:10015000541B000808B5034B1BB103490348AFF318
:10016000008008BD0000000004000020541B0008AF
:1001700070B54FF0FF0C4CF4E06C1CEA11541DBF3D
:100180001CEA135594EA0C0F95EA0C0F00F0DEF808
:100190002C4481EA030621EA4C5123EA4C5350EAED
:1001A000013518BF52EA033541F4801143F480133E
:1001B00038D0A0FB02CE4FF00005E1FB02E506F0CF
:1001C0000042E0FB03E54FF00006E1FB03569CF024
:1001D000000F18BF4EF0010EA4F1FF04B6F5007F2A
:1001E00064F5407404D25FEA4E0E6D4146EB06069C
:1001F00042EAC62141EA55514FEAC52040EA5E5025
:100200004FEACE2EB4F1FD0C88BFBCF5E06F1ED8CE
:10021000BEF1004F08BF5FEA500E50F1000041EB05
:10022000045170BD06F0004646EA010140EA0200B2
:1002300081EA0301B4EB5C04C2BFD4EB0C0541EAD4
:10024000045170BD41F480114FF0000E013C00F3E9
:10025000AB8014F1360FDEBF002001F0004170BD0D
:10026000C4F10004203C35DA0C341BDC04F1140426
:10027000C4F1200500FA05F320FA04F001FA05F2B2
:1002800040EA020001F0004221F0004110EBD3707F
:1002900021FA04F642EB06015EEA430E08BF20EAAB
:1002A000D37070BDC4F10C04C4F1200500FA04F34E
:1002B00020FA05F001FA04F240EA020001F00041E0
:1002C00010EBD37041F100015EEA430E08BF20EA53
:1002D000D37070BDC4F1200500FA05F24EEA020E9B
:1002E00020FA04F301FA05F243EA020321FA04F0CA
:1002F00001F0004121FA04F220EA020000EBD37081
:100300005EEA430E08BF20EAD37070BD94F0000F80
:100310000FD101F00046400041EB010111F4801FB4
:1003200008BF013CF7D041EA060195F0000F18BF65
:10033000704703F00046520043EB030313F4801FA1
:1003400008BF013DF7D043EA0603704794EA0C0F5B
:100350000CEA135518BF95EA0C0F0CD050EA410671
:1003600018BF52EA4306D1D181EA030101F00041EE
:100370004FF0000070BD50EA410606BF1046194616
:1003800052EA430619D094EA0C0F02D150EA013622
:1003900013D195EA0C0F05D152EA03361CBF104663
:1003A00019460AD181EA030101F0004141F0FE4102
:1003B00041F470014FF0000070BD41F0FE4141F486
:1003C000780170BD81F0004102E000BF83F000437E
:1003D00030B54FEA41044FEA430594EA050F08BFE0
:1003E00090EA020F1FBF54EA000C55EA020C7FEAA4
:1003F000645C7FEA655C00F0E2804FEA5454D4EB21
:100400005555B8BF6D420CDD2C4480EA020281EAEA
:10041000030382EA000083EA010180EA020281EA22
:100420000303362D88BF30BD11F0004F4FEA013174
:100430004FF4801C4CEA113102D0404261EB410183
:1004400013F0004F4FEA03334CEA133302D0524209
:1004500063EB430394EA050F00F0A780A4F10104C5
:10046000D5F1200E0DDB02FA0EFC22FA05F28018FF
:1004700041F1000103FA0EF2801843FA05F35941E5
:100480000EE0A5F120050EF1200E012A03FA0EFC64
:1004900028BF4CF0020C43FA05F3C01851EBE3718E
:1004A00001F0004507D54FF0000EDCF1000C7EEBAB
:1004B00000006EEB0101B1F5801F1BD3B1F5001FE9
:1004C0000CD349085FEA30004FEA3C0C04F1010408
:1004D0004FEA445212F5800F80F09A80BCF1004F31
:1004E00008BF5FEA500C50F1000041EB045141EAB3
:1004F000050130BD5FEA4C0C404141EB0101013C7C
:1005000028BFB1F5801FE9D291F0000F04BF01466A
:100510000020B1FA81F308BF2033A3F10B03B3F13C
:1005200020020CDA0C3208DD02F1140CC2F10C02CC
:1005300001FA0CF021FA02F10CE002F11402D8BF2A
:10054000C2F1200C01FA02F120FA0CFCDCBF41EAF6
:100550000C019040E41AA2BF01EB0451294330BDC5
:100560006FEA04041F3C1CDA0C340EDC04F11404A2
:10057000C4F1200220FA04F001FA02F340EA030079
:1005800021FA04F345EA030130BDC4F10C04C4F1BF
:10059000200220FA02F001FA04F340EA030029469F
:1005A00030BD21FA04F0294630BD94F0000F83F4E9
:1005B000801306BF81F480110134013D4EE77FEACC
:1005C000645C18BF7FEA655C29D094EA050F08BF18
:1005D00090EA020F05D054EA000C04BF19461046F9
:1005E00030BD91EA030F1EBF0021002030BD5FEA3D
:1005F000545C05D14000494128BF41F0004130BD65
:1006000014F580043CBF01F5801130BD01F00045B8
:1006100045F0FE4141F470014FF0000030BD7FEA2B
:10062000645C1ABF194610467FEA655C1CBF0B4626
:10063000024650EA013406BF52EA033591EA030F3D
:1006400041F4002130BD00BF90F0000F04BF002135
:10065000704730B54FF4806404F132044FF0000568
:100660004FF0000150E700BF90F0000F04BF0021E1
:10067000704730B54FF4806404F1320410F0004547
:1006800048BF40424FF000013EE700BF42004FEA42
:10069000E2014FEA31014FEA02701FBF12F07F43BF
:1006A00093F07F4F81F06051704732F07F4208BF76
:1006B000704793F07F4F04BF41F40021704730B57D
:1006C0004FF4607401F0004521F000411CE700BFC9
:1006D00050EA010208BF704730B54FF000050AE04C
:1006E00050EA010208BF704730B511F0004502D54D
:1006F000404261EB41014FF4806404F132045FEA4F
:10070000915C3FF4D8AE4FF003025FEADC0C18BFF7
:1007100003325FEADC0C18BF033202EBDC02C2F1E9
:10072000200300FA03FC20FA02F001FA03FE40EA7B
:100730000E0021FA02F11444BDE600BF4A0011D2B6
:1007400012F5001211D20DD56FF47873B3EB62522B
:100750000ED44FEAC12343F0004343EA505323FA37
:1007600002F070474FF00000704750EA013002D1AC
:100770004FF0FF3070474FF0000070474FEA4102E2
:10078000B2F1E04324BFB3F5001CDCF1FE5C0DD9EF
:1007900001F0004C4FEAC0024CEA5070B2F1004F39
:1007A00040EB830008BF20F00100704711F0804F3C
:1007B00021D113F13872BCBF01F00040704741F401
:1007C00080114FEA5252C2F11802C2F1200C10FA05
:1007D0000CF320FA02F018BF40F001004FEAC123E9
:1007E0004FEAD32303FA0CFC40EA0C0023FA02F38D
:1007F0004FEA4303CCE77FEA625307D150EA013363
:100800001EBF4FF0FE4040F44000704701F0004032
:1008100040F0FE4040F40000704700BF80B485B057
:1008200000AF03460A46FB711346BB710023FB73FE
:10083000FB790F2B02D8BB79022B01D9FB7B2CE073
:10084000FB799B08BB73FB7903F00303FB71154A2B
:10085000BB7B023352F82320FB799B000F2101FA66
:1008600003F3DB4318460F49BB7B0240023341F8D8
:1008700023200C4ABB7B023352F82320B979FB7941
:100880009B0001FA03F318460649BB7B024302337F
:1008900041F823200123FB73FB7B18461437BD4628
:1008A00080BC70470000014080B485B000AF0346B3
:1008B000FB710023FB73FB790F2B0CD80A4B1B68D1
:1008C000FA79012101FA02F21146074A0B4313603B
:1008D0000123FB7301E00023FB73FB7B18461437F5
:1008E000BD4680BC704700BF0004014080B485B0A5
:1008F00000AF0346FB710023FB73FB790F2B0DD870
:100900000A4B1B68FA79012101FA02F2D24311461F
:10091000064A0B4013600123FB7301E00023FB73C5
:10092000FB7B18461437BD4680BC7047000401406D
:1009300080B485B000AF03460A46FB711346BB7115
:100940000023FB73FB790F2B53D8BB79022B36D0D6
:10095000022B4BDC002B02D0012B18D046E0294B98
:100960009B68FA79012101FA02F21146254A0B43EC
:100970009360244BDB68FA79012101FA02F2D24339
:100980001146204A0B40D3600123FB7333E01D4B1B
:100990009B68FA79012101FA02F2D2431146194A01
:1009A0000B409360174BDB68FA79012101FA02F2E0
:1009B0001146144A0B43D3600123FB731BE0114B18
:1009C0009B68FA79012101FA02F211460D4A0B43A4
:1009D00093600C4BDB68FA79012101FA02F21146AF
:1009E000084A0B43D3600123FB7304E00023FB732D
:1009F00001E00023FB73FB7B18461437BD4680BC27
:100A0000704700BF0004014080B485B000AF0346CA
:100A10003960FB710023FB733B68002B01D1FB7B2A
:100A200007E0FB7905493A6841F823200123FB736D
:100A3000FB7B18461437BD4680BC70471C00002065
:100A400080B500AF024B1B68984700BF80BD00BF58
:100A50001C00002080B500AF024B5B68984700BFC8
:100A600080BD00BF1C00002080B500AF024B9B681A
:100A7000984700BF80BD00BF1C00002080B500AFBC
:100A8000024BDB68984700BF80BD00BF1C00002000
:100A900080B500AF024B1B69984700BF80BD00BF07
:100AA0001C00002080B485B000AF0346FB710B46EC
:100AB000BB7113467B710023FB73FB79022B00F0A3
:100AC0008880022B00F3C580002B02D0012B40D080
:100AD000BFE0BB79072B19D8624B1B68BA7992002B
:100AE0000F2101FA02F2D24311465E4A0B40136015
:100AF0005C4B1B687979BA79920001FA02F21146CF
:100B0000584A0B4313600123FB73A5E0BB790F2BFD
:100B10001CD8BB79083BBB71524B5B68BA79920019
:100B20000F2101FA02F2D24311464E4A0B405360A4
:100B30004C4B5B687979BA79920001FA02F211465E
:100B4000484A0B4353600123FB7385E00023FB738A
:100B500082E0BB79072B19D8434B1B68BA79920006
:100B60000F2101FA02F2D24311463F4A0B401360B3
:100B70003D4B1B687979BA79920001FA02F211466D
:100B8000394A0B4313600123FB7365E0BB790F2BDC
:100B90001CD8BB79083BBB71334B5B68BA799200B8
:100BA0000F2101FA02F2D24311462F4A0B40536043
:100BB0002D4B5B687979BA79920001FA02F21146FD
:100BC000294A0B4353600123FB7345E00023FB7369
:100BD00042E0BB79072B19D8244B1B68BA799200E5
:100BE0000F2101FA02F2D2431146204A0B40136052
:100BF0001E4B1B687979BA79920001FA02F211460C
:100C00001A4A0B4313600123FB7325E0BB790F2BBA
:100C10001CD8BB79083BBB71144B5B68BA79920056
:100C20000F2101FA02F2D2431146104A0B405360E1
:100C30000E4B5B687979BA79920001FA02F211469B
:100C40000A4A0B4353600123FB7305E00023FB7347
:100C500002E00023FB7300BFFB7B18461437BD4640
:100C600080BC704700080140000C014000100140AA
:100C700080B485B000AF0346FB710B46BB711346D1
:100C80007B710023FB73FB79022B4ED0022B70DCAF
:100C9000002B02D0012B24D06BE07B79002B0ED0EF
:100CA000012B1AD1374BDB68BA79012101FA02F224
:100CB0001146344A0B43D3600123FB7310E0314BE0
:100CC000DB68BA79012101FA02F2D24311462D4ABA
:100CD0000B40D3600123FB7302E00023FB7300BFD2
:100CE0004AE07B79002B0ED0012B1AD1264BDB6812
:100CF000BA79012101FA02F21146234A0B43D3606B
:100D00000123FB7310E0204BDB68BA79012101FA63
:100D100002F2D24311461C4A0B40D3600123FB73FD
:100D200002E00023FB7300BF26E07B79002B0ED08E
:100D3000012B1AD1154BDB68BA79012101FA02F2B5
:100D40001146124A0B43D3600123FB7310E00F4B93
:100D5000DB68BA79012101FA02F2D24311460B4A4B
:100D60000B40D3600123FB7302E00023FB7300BF41
:100D700002E00023FB7300BFFB7B18461437BD461F
:100D800080BC704700080140000C01400010014089
:100D900080B582B000AF0023FB7100F03DFA012264
:100DA0000B210020FFF77EFE01220C210020FFF71F
:100DB00079FE012206210020FFF774FE012207219F
:100DC0000020FFF76FFE012208210020FFF76AFED6
:100DD000012209210020FFF765FE164800F0D6FA2F
:100DE000022000F029F84FF07E5000F0CFFA2820C2
:100DF00000F022F84FF07E5000F0C8FA0C2000F00E
:100E00001BF84FF07E5000F0C1FA012000F014F8FA
:100E10004FF07E5000F0BAFA062000F00DF84FF0C7
:100E20007E5000F0B3FA0123FB71FB7918460837B6
:100E3000BD4680BD0000F04180B584B000AF0346E0
:100E4000FB710023FB7300220B210020FFF710FF32
:100E5000FB79DB09DBB21A4609210020FFF708FF06
:100E6000FB799B11DBB203F00103DBB21A460821C8
:100E70000020FFF7FDFEFB795B11DBB203F00103FD
:100E8000DBB21A4607210020FFF7F2FEFB791B11A7
:100E9000DBB203F00103DBB21A4606210020FFF7A4
:100EA000E7FE01220C210020FFF7E2FE4FF0804018
:100EB00000F06CFA00220C210020FFF7D9FEFB792C
:100EC000DB10DBB203F00103DBB21A46092100207C
:100ED000FFF7CEFEFB799B10DBB203F00103DBB220
:100EE0001A4608210020FFF7C3FEFB795B10DBB236
:100EF00003F00103DBB21A4607210020FFF7B8FE1A
:100F0000FB7903F00103DBB21A4606210020FFF74C
:100F1000AFFE01220C210020FFF7AAFE4FF0804017
:100F200000F034FA00220C210020FFF7A1FE01237B
:100F3000FB73FB7B18461037BD4680BD80B584B07F
:100F400000AF0346FB710023FB7301220B2100203D
:100F5000FFF78EFEFB79DB09DBB21A460921002080
:100F6000FFF786FEFB799B11DBB203F00103DBB2D6
:100F70001A4608210020FFF77BFEFB795B11DBB2EC
:100F800003F00103DBB21A4607210020FFF770FED1
:100F9000FB791B11DBB203F00103DBB21A46062119
:100FA0000020FFF765FE01220C210020FFF760FE04
:100FB0004FF0804000F0EAF900220C210020FFF7FA
:100FC00057FEFB79DB10DBB203F00103DBB21A46FC
:100FD00009210020FFF74CFEFB799B10DBB203F0E8
:100FE0000103DBB21A4608210020FFF741FEFB791E
:100FF0005B10DBB203F00103DBB21A4607210020CD
:10100000FFF736FEFB7903F00103DBB21A46062137
:101010000020FFF72DFE01220C210020FFF728FE03
:101020004FF0804000F0B2F900220C210020FFF7C1
:101030001FFE0123FB73FB7B18461037BD4680BDA6
:1010400080B584B000AF78600023BB730023FB73CE
:1010500009E0FB7B7A6813441B781846FFF76EFFA4
:10106000FB7B0133FB73FB7B7A6813441B78002BFB
:10107000EFD10123BB73BB7B18461037BD4680BD43
:1010800080B58EB000AF7860002387F8373007F165
:101090000C030A221946786800F018FD07F10C03CA
:1010A0001846FFF7CDFF012387F8373097F8373020
:1010B00018463837BD4680BD80B485B000AF0346C2
:1010C000FB710023FB73FB791F2B07D8FB790122EF
:1010D0009A40154B1A600123FB731FE0FB791F2B0D
:1010E0000BD9FB793F2B08D8FB79203B01229A4092
:1010F0000E4B1A600123FB7310E0FB793F2B0BD9D9
:10110000FB79432B08D8FB79403B01229A40084BDE
:101110001A600123FB7301E00023FB73FB7B18467D
:101120001437BD4680BC704700E100E004E100E0F8
:1011300008E100E080B483B000AF0023FB71104BE6
:101140001B680F4A43F00103136000BF0C4B1B6880
:1011500003F00203002BF9D00A4B1B68094A23F065
:1011600001031360074B1B68064A23F00203136058
:101170000123FB71FB7918460C37BD4680BC7047D4
:10118000001002400410024080B485B000AF034656
:101190000A46FB711346BB710023FB73BB79022B1C
:1011A00020D0022B2BDC002B02D0012B0DD026E00F
:1011B000174B1B68FA79012101FA02F21146144A11
:1011C0000B4313600123FB731CE0114B1B68FA797E
:1011D000012101FA02F211460D4A0B43136001236B
:1011E000FB730FE00B4B1B68FA79012101FA02F245
:1011F0001146084A0B4313600123FB7302E00023EE
:10120000FB7300BFFB7B18461437BD4680BC70479C
:10121000141002401810024080B483B000AF0023C5
:10122000FB710D4B1B680C4A23F0010313600A4B42
:101230001B68094A23F004031360074B1B68064A26
:1012400043F0020313600123FB71FB7918460C374E
:10125000BD4680BC704700BF10E000E080B485B0A0
:1012600000AF78600023FB737B68B3F1807F01D30C
:10127000FB7B05E0054A7B6853600123FB73FB7B26
:1012800018461437BD4680BC704700BF10E000E030
:1012900080B483B000AF0023FB71074B1B68064A84
:1012A00043F0010313600123FB71FB7918460C37EF
:1012B000BD4680BC704700BF10E000E080B483B042
:1012C00000AF0023FB71074B1B68064A23F00103A4
:1012D00013600123FB71FB7918460C37BD4680BCB7
:1012E000704700BF10E000E080B483B000AF00237F
:1012F000FB710D4B1B680C4A23F0010313600A4B72
:1013000000225A60084B00229A60074B1B68064A6D
:1013100023F4803313600123FB71FB7918460C37EB
:10132000BD4680BC704700BF10E000E080B485B0CF
:1013300000AF78600023FB73054B9A687B681A60E6
:101340000123FB73FB7B18461437BD4680BC7047F6
:1013500010E000E080B485B000AF78600023FB733C
:10136000094B5A68084B9B68D21A7B681A607B68E5
:101370001B68DA087B681A600123FB73FB7B184645
:101380001437BD4680BC704710E000E080B588B0DF
:1013900000AF78600023FB777868FFF777F94FF0AC
:1013A0000002444BFEF7E4FE02460B461046194687
:1013B000FFF7C4F903467B617B69B3F1807F1AD2E2
:1013C0003D4A7B6953603C4B1B683B4A43F0010339
:1013D000136000BF384B1B6803F48033002BF9D037
:1013E000354B1B68344A23F001031360FFF77CFF81
:1013F0000123FB7758E07B69B3F1807F52D37A6990
:1014000040F20113A3FB0213D21A52081344DB0D5E
:101410003B617A6940F20113A3FB0213D11A490818
:101420000B44D90D0B461B065B1AD31AFB60224AEC
:10143000FB685360204B1B681F4A43F00103136095
:1014400000BF1D4B1B6803F48033002BF9D01A4BEF
:101450001B68194A23F001031360174B174A5A609F
:10146000154B1B68144A43F0010313600023BB6152
:1014700009E000BF104B1B6803F48033002BF9D048
:10148000BB690133BB61BA693B699A42F1D90A4B26
:101490001B68094A23F001031360FFF725FF0123AE
:1014A000FB7701E0FB7F00E0FB7F18462037BD465D
:1014B00080BD00BF0040BF4010E000E0FEFFFF0025
:1014C00080B500AF124B1B68002B1ED0114B1B7850
:1014D000002B11D1104B1B680F4A23F0020313603D
:1014E0000D4B1B680C4A23F0010313600A4B0022CA
:1014F0005A60094B00229A60054B1B689847064BBF
:101500001B68054A23F48033136000BF80BD00BF11
:101510005C0000206000002010E000E000000000FF
:1015200090B585B000AF03463960FB710023FB73B3
:10153000FB793A68D178A04A1B01134401330A466B
:101540001A70FB793A6811799B4A1B0113440233E4
:101550000A461A70FB793A685179974A1B0113447D
:1015600003330A461A70FB793A689179924A1B0153
:10157000134404330A461A703B681A88FB791146F3
:101580008D4A1B01134408331960FB798A4A1B01F9
:10159000134408331B681846FFF756F884A3D3E9B1
:1015A0000023FEF7E5FD02460B46104619464FF0B4
:1015B0000002824BFEF70CFF02460B46FC791046F8
:1015C0001946FFF7BBF802467B4923010B440C3355
:1015D0001A60FB79784A1B01134402331B78DBB293
:1015E000002B04D102210220FFF7CEFD1AE0FB7987
:1015F000714A1B01134402331B78DBB2012B04D167
:1016000002210320FFF7C0FD0CE0FB796A4A1B01B1
:10161000134402331B78DBB2022B03D102210420D6
:10162000FFF7B2FDFB79644A1B01134404331B78B6
:10163000DBB2002B04D102210220FFF7A5FD1AE046
:10164000FB795D4A1B01134404331B78DBB2012B89
:1016500004D102210320FFF797FD0CE0FB79564AE5
:101660001B01134404331B78DBB2022B03D102218C
:101670000420FFF789FD02210020FFF785FDFB799B
:101680004D4A1B01134402331B78D8B2FB794A4AF6
:101690001B01134401331B78DBB204221946FFF708
:1016A00001FAFB79444A1B01134404331B78D8B276
:1016B000FB79414A1B01134403331B78DBB201223F
:1016C0001946FFF7EFF9FB793B4A1B01134401333D
:1016D0001B78DAB2FB7938491B010B4402331B78C3
:1016E000DBB219461046FFF799F8FB79324A1B0125
:1016F000134401331B78BB73BB7B002B03D1062043
:10170000FFF7DAFC28E0BB7B012B03D10720FFF7B2
:10171000D3FC21E0BB7B022B03D10820FFF7CCFCDC
:101720001AE0BB7B032B03D10920FFF7C5FC13E0B4
:10173000BB7B042B03D10A20FFF7BEFC0CE0BB7B74
:10174000042B06D9BB7B092B03D81720FFF7B4FC69
:1017500002E02820FFF7B0FCFB79174A1B01134475
:1017600001331B78DBB216491846FFF74DF9FB79B8
:10177000114A1B01134401331B78DBB21846FFF7F3
:1017800093F8FB790C4A1B01134401331B78DBB23D
:1017900002211846FFF7CCF8FFF73EFD0123FB734B
:1017A000FB7B18461437BD4690BD00BFAFF30080E9
:1017B000B29DEFA7C66B4D40640000200000E03FE3
:1017C0002119000880B584B000AF03463960FB7171
:1017D0000023FB73FB794B4A1B0113441B78DBB2DC
:1017E000002B40F08580484B00221A70474B0022A6
:1017F0001A70FB79434A1B01134401331B78DBB297
:101800001846FFF751F8FB793E4A1B011344013398
:101810001B78DBB202211846FFF78AF8FB79394AB8
:101820001B01134404331B78D8B2FB79354A1B01E2
:10183000134403331B78DBB200221946FFF718FA72
:101840004FF08040FFF7A2FDFB792E4A1B011344A5
:1018500004331B78D8B2FB792A4A1B0113440333A3
:101860001B78DBB201221946FFF702FA2848FFF77E
:101870008DFDFB79234A1B01134404331B78D8B236
:10188000FB79204A1B01134403331B78DBB200228F
:101890001946FFF7EDF920E007F108031846FFF7B6
:1018A00059FDFB79174A1B0113440C331A68BB68B6
:1018B0009A4212D2FB79134A1B01134401331B785D
:1018C000DBB21846FFF712F8104B01221A70FFF72F
:1018D000F5FC3B680F4A1A6004E00C4B1B78DBB246
:1018E000002BD9D00C4B1A683B681A60FB7B04E0D4
:1018F0003B684FF040421A60FB7B18461037BD46EC
:1019000080BD00BF640000209800002099000020E6
:1019100000002041000080BF940000200000000073
:1019200080B500AF204B1B78DBB2002B09D142F20F
:101930001070FFF793FCFFF7ABFC1B4B01221A70F2
:101940002AE01A4B1B78DBB2012B25D0174B012262
:101950001A701748FFF7EAFC154B1B681846FEF78C
:1019600095FE02460B4610461946FFF789FB104BC1
:101970001B681846FEF78AFE09A3D3E90023FEF789
:10198000F7FB02460B4610461946FEF7F7FE0346E4
:10199000074A1360FFF7A8FC00BF80BDAFF30080CB
:1019A0009CC420B07268913F9800002099000020EC
:1019B0009400002080B584B000AF4FF00003BB60FE
:1019C000FFF7B8FB0223FB730C4A3B4692E8030087
:1019D00083E8030002210220FFF7D6FBFFF7D8F9C6
:1019E0003A46FB7B11461846FFF79AFD07F10802BD
:1019F000FB7B11461846FFF7E5FEF7E76C1B000876
:101A00000D488546AFF300800C480D490D4A002370
:101A100002E0D458C4500433C4188C42F9D30A4AA3
:101A20000A4C002301E013600432A242FBD300F011
:101A300011F8FFF7BFFFFEE7005000200000002074
:101A400000000020A41B0008000000209C000020D3
:101A5000FEE7000070B500260C4D0D4C641BA41071
:101A6000A64209D100F076F800260A4D0A4C641B04
:101A7000A410A64205D170BD55F8043B9847013625
:101A8000EEE755F8043B98470136F2E79C1B000847
:101A90009C1B00089C1B0008A01B0008931E222B07
:101AA00010B50C4604D900231C460B70204610BD0F
:101AB0000A2A09D1002807DA2D230B7001214042A0
:101AC000214400F005F8F1E70021F9E7FFF7E6BF50
:101AD000F0B58BB005460B466E461D4C04F1200C4C
:101AE000374620686168083403C764453E46F7D12D
:101AF000217920683971911E222938604FF0000148
:101B000004D919700B4618460BB0F0BD581E844618
:101B1000B5FBF2F702FB175628366E4416F8286C10
:101B20000C460CF8016F2E46B2423D4601F1010110
:101B3000EED900225A541919A51AAA42E3DA10F86C
:101B4000015F0E780132067001F80159F4E700BF19
:101B5000741B0008F8B500BFF8BC08BC9E4670476F
:0C1B6000F8B500BFF8BC08BC9E467047FA
:101B6C00F4010001010201003031323334353637D3
:101B7C0038396162636465666768696A6B6C6D6E3F
:101B8C006F707172737475767778797A00000000D3
:041B9C0055010008E7
:041BA0003101000807
:0400000508001A01D4
:00000001FF
