:020000040800F2
:10000000005000205D060008AD060008AD0600089F
:10001000AD060008AD060008AD06000800000000AF
:10002000000000000000000000000000AD06000815
:10003000AD06000800000000AD060008AD0600088F
:10004000AD060008AD060008AD060008AD060008C4
:10005000AD060008AD060008AD060008AD060008B4
:10006000AD060008AD060008AD060008AD060008A4
:10007000AD060008AD060008AD060008AD06000894
:10008000AD060008AD060008AD060008AD06000884
:10009000AD060008AD060008AD060008AD06000874
:1000A000AD060008AD060008AD060008AD06000864
:1000B000AD060008AD060008AD060008AD06000854
:1000C000AD060008AD060008AD060008AD06000844
:1000D000AD060008AD060008AD060008AD06000834
:1000E000AD060008AD06000800000000AD060008DF
:1000F000AD060008AD060008AD060008AD06000814
:10010000AD060008AD060008AD060008AD06000803
:10011000AD060008AD060008AD060008AD060008F3
:10012000AD060008AD060008AD060008AD060008E3
:1001300010B5054C237833B9044B13B10448AFF321
:1001400000800123237010BD00000020000000008B
:10015000F806000808B5034B1BB103490348AFF389
:10016000008008BD0000000004000020F806000820
:1001700080B485B000AF0346FB710B46BB711346DC
:100180007B710023FB73FB79022B00F08280022B32
:1001900000F3BC80002B02D0012B3DD0B6E0BB7930
:1001A000072B19D85E4B1B68BA7992000F2101FA10
:1001B00002F2D24311465A4A0B401360584B1B6857
:1001C0007979BA79920001FA02F21146544A0B4346
:1001D00013600123FB739CE0BB790F2B19D8504BA4
:1001E0005B68BA7992000F2101FA02F2D2431146FC
:1001F0004B4A0B4053604A4B5B687979BA7992005D
:1002000001FA02F21146464A0B4353600123FB7385
:100210007FE00023FB737CE0BB79072B19D8414BAF
:100220001B68BA7992000F2101FA02F2D2431146FB
:100230003C4A0B4013603B4B1B687979BA799200BA
:1002400001FA02F21146374A0B4313600123FB7394
:100250005FE0BB790F2B19D8324B5B68BA799200FB
:100260000F2101FA02F2D24311462E4A0B4053608D
:100270002C4B5B687979BA79920001FA02F2114647
:10028000284A0B4353600123FB7342E00023FB73B6
:100290003FE0BB79072B19D8234B1B68BA79920032
:1002A0000F2101FA02F2D24311461F4A0B4013609C
:1002B0001D4B1B687979BA79920001FA02F2114656
:1002C000194A0B4313600123FB7322E0BB790F2B08
:1002D00019D8154B5B68BA7992000F2101FA02F226
:1002E000D2431146104A0B4053600F4B5B6879793B
:1002F000BA79920001FA02F211460B4A0B4353609D
:100300000123FB7305E00023FB7302E00023FB7372
:1003100000BFFB7B18461437BD4680BC704700BF4A
:1003200000080140000C01400010014080B485B07D
:1003300000AF0346FB710B46BB7113467B71002374
:10034000FB73FB79022B4ED0022B70DC002B02D00A
:10035000012B24D06BE07B79002B0ED0012B1AD11E
:10036000374BDB68BA79012101FA02F21146344AAF
:100370000B43D3600123FB7310E0314BDB68BA7988
:10038000012101FA02F2D24311462D4A0B40D360FB
:100390000123FB7302E00023FB7300BF4AE07B797B
:1003A000002B0ED0012B1AD1264BDB68BA79012124
:1003B00001FA02F21146234A0B43D3600123FB7377
:1003C00010E0204BDB68BA79012101FA02F2D24336
:1003D00011461C4A0B40D3600123FB7302E000234B
:1003E000FB7300BF26E07B79002B0ED0012B1AD1C6
:1003F000154BDB68BA79012101FA02F21146124A63
:100400000B43D3600123FB7310E00F4BDB68BA7919
:10041000012101FA02F2D24311460B4A0B40D3608C
:100420000123FB7302E00023FB7300BF02E0002303
:10043000FB7300BFFB7B18461437BD4680BC70477A
:1004400000080140000C01400010014080B485B05C
:1004500000AF03463A60FB710B46BB710023FB7390
:100460003B68002B3CD0FB79022B26D0022B34DCDE
:10047000002B02D0012B10D02FE01D4B9B68BA79C6
:10048000012101FA02F21A40BB7922FA03F3DAB22F
:100490003B681A700123FB7324E0164B9B68BA7902
:1004A000012101FA02F21A40BB7922FA03F3DAB20F
:1004B0003B681A700123FB7314E00F4B9B68BA79F9
:1004C000012101FA02F21A40BB7922FA03F3DAB2EF
:1004D0003B681A700123FB7304E00023FB7301E007
:1004E0000023FB73FB7B18461437BD4680BC704766
:1004F00000080140000C01400010014080B483B0AE
:1005000000AF0023FB71134B1B68124A23F48023B6
:100510001360104B1B680F4A43F48033136000BF15
:100520000C4B1B6803F40033002BF9D00A4B1B68FB
:10053000094A43F001031360074B1B68064A23F086
:10054000020313600123FB71FB7918460C37BD468B
:1005500080BC7047001002400410024080B485B097
:1005600000AF03460A46FB711346BB710023FB73C1
:10057000BB79022B20D0022B2BDC002B02D0012BCD
:100580000DD026E0174B1B68FA79012101FA02F21F
:100590001146144A0B4313600123FB731CE0114BFB
:1005A0001B68FA79012101FA02F211460D4A0B4348
:1005B00013600123FB730FE00B4B1B68FA790121D9
:1005C00001FA02F21146084A0B4313600123FB7340
:1005D00002E00023FB7300BFFB7B18461437BD46C7
:1005E00080BC7047141002401810024080B582B0E1
:1005F00000AFFFF783FF02210220FFF7AFFF0122C8
:1006000000210020FFF7B4FD012200210020FFF7A8
:100610008DFE082201210020FFF7AAFD0122012101
:100620000020FFF783FE082202210020FFF7A0FD33
:10063000002202210020FFF779FE0023FB71002336
:10064000BB71FB1D1A4601210020FFF7FFFEBB1DF9
:100650001A4602210020FFF7F9FEF2E70D48854611
:10066000AFF300800C480D490D4A002302E0D45836
:10067000C4500433C4188C42F9D30A4A0A4C0023EC
:1006800001E013600432A242FBD300F011F8FFF73F
:10069000ADFFFEE700500020000000200000002019
:1006A00018070008000000201C000020FEE70000E2
:1006B00070B500260C4D0D4C641BA410A64209D148
:1006C00000F01AF800260A4D0A4C641BA410A6423A
:1006D00005D170BD55F8043B98470136EEE755F853
:1006E000043B98470136F2E710070008100700089E
:1006F0001007000814070008F8B500BFF8BC08BCD4
:100700009E467047F8B500BFF8BC08BC9E467047CF
:040710005501000887
:0407140031010008A7
:040000050800065D8C
:00000001FF
