:020000040800F2
:100000000050002081080008D1080008D10800082D
:10001000D1080008D1080008D1080008000000003D
:10002000000000000000000000000000D1080008EF
:10003000D108000800000000D1080008D10800081D
:10004000D1080008D1080008D1080008D10800082C
:10005000D1080008D1080008510300086503000812
:10006000790300088D030008A1030008D1080008E7
:10007000D1080008D1080008D1080008D1080008FC
:10008000D1080008D1080008D1080008D1080008EC
:10009000D1080008D1080008D1080008D1080008DC
:1000A000D1080008D1080008D1080008D1080008CC
:1000B000D1080008D1080008D1080008D1080008BC
:1000C000D1080008D1080008D1080008D1080008AC
:1000D000D1080008D1080008D1080008D10800089C
:1000E000D1080008D108000800000000D10800086D
:1000F000D1080008D1080008D1080008D10800087C
:10010000D1080008D1080008D1080008D10800086B
:10011000D1080008D1080008D1080008D10800085B
:10012000D1080008D1080008D1080008D10800084B
:1001300010B5054C237833B9044B13B10448AFF321
:1001400000800123237010BD00000020000000008B
:100150001C09000808B5034B1BB103490348AFF362
:10016000008008BD00000000040000201C090008F9
:1001700080B485B000AF03460A46FB711346BB71DD
:100180000023FB73FB790F2B02D8BB79022B01D91B
:10019000FB7B2CE0FB799B08BB73FB7903F003032B
:1001A000FB71154ABB7B023352F82320FB799B007D
:1001B0000F2101FA03F3DB4318460F49BB7B0240D2
:1001C000023341F823200C4ABB7B023352F8232030
:1001D000B979FB799B0001FA03F318460649BB7B0A
:1001E0000243023341F823200123FB73FB7B1846B3
:1001F0001437BD4680BC70470000014080B485B014
:1002000000AF0346FB710023FB73FB790F2B0CD867
:100210000A4B1B68FA79012101FA02F21146074ADA
:100220000B4313600123FB7301E00023FB73FB7B93
:1002300018461437BD4680BC704700BF000401401B
:1002400080B485B000AF03460A46FB711346BB710C
:100250000023FB73FB790F2B53D8BB79022B36D0CD
:10026000022B4BDC002B02D0012B18D046E0294B8F
:100270009B68FA79012101FA02F21146254A0B43E3
:100280009360244BDB68FA79012101FA02F2D24330
:100290001146204A0B40D3600123FB7333E01D4B12
:1002A0009B68FA79012101FA02F2D2431146194AF8
:1002B0000B409360174BDB68FA79012101FA02F2D7
:1002C0001146144A0B43D3600123FB731BE0114B0F
:1002D0009B68FA79012101FA02F211460D4A0B439B
:1002E00093600C4BDB68FA79012101FA02F21146A6
:1002F000084A0B43D3600123FB7304E00023FB7324
:1003000001E00023FB73FB7B18461437BD4680BC1D
:10031000704700BF0004014080B485B000AF0346C1
:100320003960FB710023FB733B68002B01D1FB7B21
:1003300007E0FB7905493A6841F823200123FB7364
:10034000FB7B18461437BD4680BC70471C0000205C
:1003500080B500AF024B1B68984700BF80BD00BF4F
:100360001C00002080B500AF024B5B68984700BFBF
:1003700080BD00BF1C00002080B500AF024B9B6811
:10038000984700BF80BD00BF1C00002080B500AFB3
:10039000024BDB68984700BF80BD00BF1C000020F7
:1003A00080B500AF024B1B69984700BF80BD00BFFE
:1003B0001C00002080B485B000AF0346FB710B46E3
:1003C000BB7113467B710023FB73FB79022B00F09A
:1003D0008280022B00F3BC80002B02D0012B3DD089
:1003E000B6E0BB79072B19D85E4B1B68BA7992002F
:1003F0000F2101FA02F2D24311465A4A0B40136010
:10040000584B1B687979BA79920001FA02F21146C9
:10041000544A0B4313600123FB739CE0BB790F2B01
:1004200019D8504B5B68BA7992000F2101FA02F299
:10043000D24311464B4A0B4053604A4B5B68797973
:10044000BA79920001FA02F21146464A0B43536010
:100450000123FB737FE00023FB737CE0BB79072B58
:1004600019D8414B1B68BA7992000F2101FA02F2A8
:10047000D24311463C4A0B4013603B4B1B687979D1
:10048000BA79920001FA02F21146374A0B4313601F
:100490000123FB735FE0BB790F2B19D8324B5B68EC
:1004A000BA7992000F2101FA02F2D24311462E4A84
:1004B0000B4053602C4B5B687979BA79920001FA52
:1004C00002F21146284A0B4353600123FB7342E0BA
:1004D0000023FB733FE0BB79072B19D8234B1B6824
:1004E000BA7992000F2101FA02F2D24311461F4A53
:1004F0000B4013601D4B1B687979BA79920001FAA1
:1005000002F21146194A0B4313600123FB7322E0E8
:10051000BB790F2B19D8154B5B68BA7992000F2164
:1005200001FA02F2D2431146104A0B4053600F4BBE
:100530005B687979BA79920001FA02F211460B4AA6
:100540000B4353600123FB7305E00023FB7302E0C0
:100550000023FB7300BFFB7B18461437BD4680BCED
:10056000704700BF00080140000C0140001001402E
:1005700080B485B000AF0346FB710B46BB711346D8
:100580007B710023FB73FB79022B4ED0022B70DCB6
:10059000002B02D0012B24D06BE07B79002B0ED0F6
:1005A000012B1AD1374BDB68BA79012101FA02F22B
:1005B0001146344A0B43D3600123FB7310E0314BE7
:1005C000DB68BA79012101FA02F2D24311462D4AC1
:1005D0000B40D3600123FB7302E00023FB7300BFD9
:1005E0004AE07B79002B0ED0012B1AD1264BDB6819
:1005F000BA79012101FA02F21146234A0B43D36072
:100600000123FB7310E0204BDB68BA79012101FA6A
:1006100002F2D24311461C4A0B40D3600123FB7304
:1006200002E00023FB7300BF26E07B79002B0ED095
:10063000012B1AD1154BDB68BA79012101FA02F2BC
:100640001146124A0B43D3600123FB7310E00F4B9A
:10065000DB68BA79012101FA02F2D24311460B4A52
:100660000B40D3600123FB7302E00023FB7300BF48
:1006700002E00023FB7300BFFB7B18461437BD4626
:1006800080BC704700080140000C01400010014090
:1006900080B485B000AF0346FB710023FB73FB7988
:1006A0001F2B07D8FB7901229A40154B1A600123B2
:1006B000FB731FE0FB791F2B0BD9FB793F2B08D86D
:1006C000FB79203B01229A400E4B1A600123FB73F9
:1006D00010E0FB793F2B0BD9FB79432B08D8FB7932
:1006E000403B01229A40084B1A600123FB7301E052
:1006F0000023FB73FB7B18461437BD4680BC704754
:1007000000E100E004E100E008E100E080B483B033
:1007100000AF0023FB71104B1B680F4A43F001032D
:10072000136000BF0C4B1B6803F00203002BF9D0D1
:100730000A4B1B68094A23F001031360074B1B682F
:10074000064A23F0020313600123FB71FB7918466C
:100750000C37BD4680BC70470010024004100240B8
:1007600080B485B000AF03460A46FB711346BB71E7
:100770000023FB73BB79022B20D0022B2BDC002B38
:1007800002D0012B0DD026E0174B1B68FA7901210E
:1007900001FA02F21146144A0B4313600123FB7362
:1007A0001CE0114B1B68FA79012101FA02F2114693
:1007B0000D4A0B4313600123FB730FE00B4B1B68C7
:1007C000FA79012101FA02F21146084A0B4313603B
:1007D0000123FB7302E00023FB7300BFFB7B184681
:1007E0001437BD4680BC70471410024018100240F8
:1007F00080B500AFFFF78AFF02210020FFF7B0FFAE
:1008000002210220FFF7ACFF082200210020FFF7A1
:10081000D1FD022202210020FFF7CCFD0620FFF7C8
:1008200037FF00210020FFF7A3FC00210020FFF785
:1008300007FD0020FFF7E2FC02490020FFF76CFDF6
:10084000FEE700BF4908000880B500AF0B4B1B78DE
:10085000002B08D1012202210020FFF789FE074B5F
:1008600001221A7007E0002202210020FFF780FE1B
:10087000024B00221A7000BF80BD00BF5C00002048
:100880000D488546AFF300800C480D490D4A002302
:1008900002E0D458C4500433C4188C42F9D30A4A35
:1008A0000A4C002301E013600432A242FBD300F0A3
:1008B00011F8FFF79DFFFEE7005000200000002028
:1008C000000000203C09000800000020600000201B
:1008D000FEE7000070B500260C4D0D4C641BA41003
:1008E000A64209D100F01AF800260A4D0A4C641BF2
:1008F000A410A64205D170BD55F8043B98470136B7
:10090000EEE755F8043B98470136F2E73409000852
:10091000340900083409000838090008F8B500BF98
:10092000F8BC08BC9E467047F8B500BFF8BC08BCD0
:040930009E46704728
:040934005501000861
:040938003101000881
:040000050800088166
:00000001FF
